:100000000C943E000C945B000C945B000C945B0021
:100010000C945B000C945B000C945B000C945B00F4
:100020000C945B000C945B000C945B000C945B00E4
:100030000C945B000C945B000C945B000C945B00D4
:100040000C945B000C945B000C945B000C945B00C4
:100050000C9402030C945B000C9443040C945B001E
:100060000C945B000C945B000C945B000C945B00A4
:100070000C945B000C945B000C945B0011241FBE7D
:10008000CFEFD4E0DEBFCDBF11E0A0E0B1E0E6EA03
:10009000F3E102C005900D92A630B107D9F711E047
:1000A000A6E0B1E001C01D92AB32B107E1F70E94BA
:1000B0004B010C94D1090C940000CF93C82F80E021
:1000C00090E190931201809311018AE090E0909367
:1000D00014018093130182E090E0909316018093C5
:1000E000150180E180930601109207018C2F65E0D5
:1000F00040E150E022E030E00E94910584E28093EC
:10010000060188E1809307018C2F60E044E250E013
:1001100022E030E00E949105CF9108950E945D0099
:1001200008954091060161E050E022E030E00E9435
:10013000C2059091060180E06091070170E0862B76
:10014000972B9C01B901882777FD8095982F0E94F5
:100150007D07462F572F682F792FCB01BA010895BD
:10016000CF93C82F80911101409112014093060155
:10017000809307018C2F65E050E022E030E00E9480
:100180009105409106018C2F64E050E022E030E0C0
:100190000E94C2059091060180E02091070130E0A5
:1001A000822B932B60911301709114010E946C08B3
:1001B00028EE33E0629FC001639F900D729F900D07
:1001C0001124BC0180E090E00E947B07462F572F4E
:1001D000682F792FCB01BA01CF9108954091060184
:1001E00062E050E022E030E00E949105909106012B
:1001F00080E06091070170E0862B972B9C01B9018C
:10020000882777FD8095982F0E947D072FE632E1A1
:1002100043E85AE30E94E107462F572F682F792FB2
:10022000CB01BA01089510921D0181E0809317015E
:1002300082E080931A0183E08093200110921F01D5
:1002400010921E01109219011092180110921C01B7
:1002500010921B0110922201109221010895CF9358
:10026000DF9300D000D00F92CDB7DEB76B837C83D5
:100270008D8359834A83862FBE016F5F7F4F42E093
:1002800050E00E94A6040F900F900F900F900F90D7
:10029000DF91CF91089578940E94D7040E9497042B
:1002A0000E94F102FFCFCF93DF93CDB7DEB7279740
:1002B0000FB6F894DEBF0FBECDBF27960FB6F894E9
:1002C000DEBF0FBECDBFDF91CF9108950F931F9377
:1002D000CF93DF938B01EC016991C80170E00E941C
:1002E000BD06C801BE010E94F006DF91CF911F91AB
:1002F0000F9108950F931F93CF93DF93EC018B0120
:10030000CB0160E20E945306C80162E00E945306DE
:10031000C80168810E94530669817A818B819C8122
:100320000E944F07AB01BC01C801BA010E946706D9
:10033000DF91CF911F910F910895CF93DF93CDB7A8
:10034000DEB727970FB6F894DEBF0FBECDBF279656
:100350000FB6F894DEBF0FBECDBFDF91CF910895E9
:100360000F931F93CF93DF93EC018B01CB01BE0161
:100370000E94BD06BE016F5F7F4FC8010E94F0065C
:10038000DF91CF911F910F9108950F931F93CF93FA
:10039000DF93EC018B01CB0160E20E945306C801A0
:1003A00064E00E945306C80168810E945306698177
:1003B0007A818B819C810E944F07AB01BC01C801EF
:1003C000BA010E946706DF91CF911F910F910895A6
:1003D000CF93DF9300D00F92CDB7DEB70F900F9081
:1003E0000F90DF91CF910895FC01CB01608170E007
:1003F0000E94380708950F931F93CF93DF93EC016A
:100400008B01CB0160E10E945306C80163E00E94AA
:100410005306C80168810E945306DF91CF911F9156
:100420000F910895CF93DF93CDB7DEB727970FB61F
:10043000F894DEBF0FBECDBF27960FB6F894DEBF8F
:100440000FBECDBFDF91CF9108950F931F93CF9330
:10045000DF93EC018B01CB01BE010E94BD06BE0102
:100460006F5F7F4FC8010E94F006DF91CF911F910F
:100470000F9108950F931F93CF93DF93EC018B019E
:10048000CB0160E20E945306C80165E00E9453065A
:10049000C80168810E94530669817A818B819C81A1
:1004A0000E944F07AB01BC01C801BA010E94670658
:1004B000DF91CF911F910F910895CF93DF93CDB727
:1004C000DEB727970FB6F894DEBF0FBECDBF2796D5
:1004D0000FB6F894DEBF0FBECDBFDF91CF91089568
:1004E0000F931F93CF93DF93EC018B01CB01BE01E0
:1004F0000E94BD06BE016F5F7F4FC8010E94F006DB
:10050000DF91CF911F910F9108950F931F93CF9378
:10051000DF93EC018B01CB0160E20E945306C8011E
:1005200064E00E945306C80168810E9453066981F5
:100530007A818B819C810E944F07AB01BC01C8016D
:10054000BA010E946706DF91CF911F910F91089524
:10055000CF93DF9300D00F92CDB7DEB70F900F90FF
:100560000F90DF91CF9108959C01CB01B9010E94BA
:10057000BD0608950F931F93CF93DF93EC018B017A
:10058000CB0160E10E945306C80161E00E9453065E
:10059000C80168810E945306DF91CF911F910F918E
:1005A00008951092100110920F0110920E011092F6
:1005B0000D0110920C0180912501909126010E945D
:1005C000FE05089510920B0110920A011092090184
:1005D0001092080180912301909124010E94FE0550
:1005E00008951092C50085E08093C40088ED809343
:1005F000C10084E08093C200E0ECF0E0808185FFE0
:10060000FDCF08951F920F920FB60F9211242F93D2
:100610003F934F935F936F937F938F939F93AF938A
:10062000BF93EF93FF93CF93DF93CDB7DEB72897B8
:10063000DEBFCDBF80910F0190911001009761F452
:100640008091C60090E090930E0180930D0182305E
:10065000910508F0EBC0E1C08130910559F580911A
:10066000C600823069F08330A1F08130D1F480E19E
:1006700090E00E941B069093260180932501CDC037
:1006800080E290E00E941B06909326018093250152
:10069000C4C080E190E00E941B06909326018093E5
:1006A00025011092100110920F0110920E0110926C
:1006B0000D01BCC06091C60080912501909126017A
:1006C0000E94530680910D0190910E01009709F44C
:1006D000A4C020910F01309110012115310509F4BA
:1006E0009CC08217930709F098C019828091250158
:1006F00090912601BE016F5F7F4F0E94BD068981E8
:1007000090910C01891719F00E94D1028FC082309C
:1007100011F1833020F4813009F073C006C08330BA
:10072000D9F1843009F06DC04CC01A8284EB92E09C
:100730009C838B836091250170912601E0916A056D
:10074000F0916B05CE01029609956A817B818C81BF
:100750000E94A8025FC01A8280E090E0DC018B83D7
:100760009C83AD83BE8386E691E098878F836091FA
:10077000250170912601E091CE02F091CF02CE01C9
:10078000029609952A813B814C815D816E817F8132
:1007900088850E9453013EC01A8284EF91E09C83B9
:1007A0008B836091250170912601E091EA03F0911D
:1007B000EB03CE01029609956A817B818C810E94B0
:1007C000E8011A8280E090E0DC018B839C83AD839A
:1007D000BE8380EB91E098878F83609125017091B3
:1007E0002601E0916203F0916303CE010296099520
:1007F0002A813B814C815D816E817F8188850E9449
:100800009D011092100110920F0110920E01109292
:100810000D010CC00E94D10209C080910F0190917E
:10082000100101969093100180930F012896DEBF6E
:10083000CDBFDF91CF91FF91EF91BF91AF919F918C
:100840008F917F916F915F914F913F912F910F9079
:100850000FBE0F901F90189520910F01309110013D
:100860002115310579F4909324018093230110928E
:100870000B0110920A0168E071E00E94BD0610921F
:10088000C6000895FFCF1F920F920FB60F9211244A
:100890002F933F934F935F936F937F938F939F9388
:1008A000AF93BF93EF93FF93809123019091240125
:1008B00066EC70E00E94BD062091080130910901AC
:1008C00080910A0190910B012817390711F40E94B9
:1008D000E202FF91EF91BF91AF919F918F917F9134
:1008E0006F915F914F913F912F910F900FBE0F909D
:1008F0001F901895813061F0813028F0823069F0C6
:100900008330A1F40FC09BB180E289278BB9089591
:100910009BB180E189278BB9089595B180E1892742
:1009200085B9089595B188E0892785B908958AB178
:1009300080638AB984B1886184B98BB180638BB9D3
:1009400085B1886185B981E58CBD0895CF92DF922C
:10095000FF920F931F93CF93DF93F82E8B01EA0141
:100960000F2EFAE7CF2EF4E0DF2EF02D90E0F60107
:100970000995209781F0E0E0F0E080E090E0E00F62
:10098000F11F20812EBD0DB407FEFDCF0196FC01A5
:100990008C179D07A1F78F2D90E0F6010995DF9147
:1009A000CF911F910F91FF90DF90CF9008958BEF23
:1009B0008093B8000895ECEBF0E010829EE89083FD
:1009C00090819923ECF79091B900987F9830A1F429
:1009D0008093BB0084E88093BC00ECEBF0E0808166
:1009E0008823ECF79091B900987F983139F081E035
:1009F000903429F080E0089580E0089581E0089522
:100A000084E98093BC0008958093BB0084E88093C0
:100A1000BC00ECEBF0E080818823ECF79091B9000A
:100A2000987F81E0983209F080E0089581E080931A
:100A3000BC00ECEBF0E080818823ECF78091BB00F8
:100A4000089584E88093BC00ECEBF0E0808188237B
:100A5000ECF78091BB000895EF92FF920F931F93E4
:100A6000CF93DF93062F172FEA010E94DB04882320
:100A7000B1F0209781F0E02EF12E00E010E0F701B8
:100A800081917F010E940405882359F40F5F1F4F55
:100A90000C171D07A1F70E94000581E003C080E04C
:100AA00001C080E0DF91CF911F910F91FF90EF90F7
:100AB0000895AF92BF92CF92DF92EF92FF920F9381
:100AC0001F93CF93DF935B016A0181600E94DB0477
:100AD0008823D9F0E601219769F0750100E010E064
:100AE0000E941605F70181937F010F5F1F4F0C17BE
:100AF0001D07B0F3E6012197CA0DDB1D0E942105F9
:100B000088830E94000581E001C080E0DF91CF91E1
:100B10001F910F91FF90EF90DF90CF90BF90AF901B
:100B20000895EF92FF920F931F93CF93DF93062FB9
:100B3000C42FD52F79010E94DB048823C9F0802FB0
:100B40000E940405E114F10479F00C2F1D2FC0E080
:100B5000D0E0F80181918F010E940405882351F4AF
:100B60002196CE15DF05A9F70E94000581E003C09C
:100B700080E001C080E0DF91CF911F910F91FF9045
:100B8000EF900895AF92BF92CF92DF92EF92FF92D3
:100B90000F931F93CF93DF93C62F5A016901816092
:100BA0000E94DB048823F1F08C2F0E940405E601EB
:100BB000219769F0750100E010E00E941605F70129
:100BC00081937F010F5F1F4F0C171D07B0F3E601E4
:100BD0002197CA0DDB1D0E94210588830E94000514
:100BE00081E001C080E0DF91CF911F910F91FF90D4
:100BF000EF90DF90CF90BF90AF900895CF93DF93A9
:100C0000EC018A819B810E941609CE010E9416097F
:100C1000DF91CF910895CF93DF93EC014881598103
:100C20008A819B8160E070E00E94C1091D821C8264
:100C3000DF91CF910895EF92FF921F93CF93DF93AF
:100C40007C0186E090E00E948008192FC82FD92FE0
:100C5000F982E882C7010E9480088A839B83CE01C3
:100C60000E940B068C2F912FDF91CF911F91FF9047
:100C7000EF9008950F931F93CF93DF93EC016C8156
:100C80007D8108811981061B170B8A819B81680F62
:100C9000791FA8010E94AF091D830C83DF91CF91BA
:100CA0001F910F910895FC018481958120813181EC
:100CB0008217930751F0A281B381A80FB91F6C93DB
:100CC00001969583848381E0089580E00895FC0176
:100CD00084819581208131818217930789F0A281D7
:100CE000B381A80FB91F6C93A281B381A80FB91F5C
:100CF00011961C92119702969583848381E0089542
:100D000080E00895FC0184819581208131818217E2
:100D10009307E9F0A281B381A80FB91F4C93A28178
:100D2000B381A80FB91F11961C92A281B381A80F9D
:100D3000B91F12961C92A281B381A80FB91F1396F6
:100D40001C92139704969583848381E0089580E034
:100D50000895FC0184819581208131818217930758
:100D600051F0A281B381A80FB91F6C9301969583AE
:100D7000848381E0089580E00895FC012481358119
:100D8000808191812817390768F4A281B381A20F6D
:100D9000B31F8C91DB018C932F5F3F4F35832483EE
:100DA00081E0089580E00895FC01248135818081EF
:100DB00091812817390790F482819381820F931FC4
:100DC000DC018D919C91DB0111969C938E93848123
:100DD000958102969583848381E0089580E008954B
:100DE000CF93DF93FC012481358180819181281785
:100DF0003907A8F482819381820F931FEC018881C7
:100E00009981AA81BB81EB0188839983AA83BB83E3
:100E10008481958102969583848381E001C080E07E
:100E2000DF91CF910895CF93DF93FC012481358129
:100E30008081918128173907B8F482819381820FCC
:100E4000931FDC018D919C91AA2797FDA095BA2F45
:100E5000EB0188839983AA83BB838481958104965F
:100E60009583848381E001C080E0DF91CF91089574
:100E7000FC0124813581808191812817390768F42C
:100E8000A281B381A20FB31F8C91DB018C932F5FE2
:100E90003F4F3583248381E0089580E0089570D02A
:100EA00088F09F5790F0B92F9927B751A0F0D1F053
:100EB000660F771F881F991F1AF0BA95C9F712C0DD
:100EC000B13081F077D0B1E0089574C0672F782FEA
:100ED0008827B85F39F0B93FCCF386957795679549
:100EE000B395D9F73EF490958095709561957F4FB5
:100EF0008F4F9F4F0895E89409C097FB3EF490955B
:100F00008095709561957F4F8F4F9F4F9923A9F0E2
:100F1000F92F96E9BB279395F69587957795679571
:100F2000B795F111F8CFFAF4BB0F11F460FF1BC0B5
:100F30006F5F7F4F8F4F9F4F16C0882311F096E948
:100F400011C0772321F09EE8872F762F05C06623F6
:100F500071F096E8862F70E060E02AF09A95660FAF
:100F6000771F881FDAF7880F9695879597F9089568
:100F700057FD9058440F551F59F05F3F71F047954A
:100F8000880F97FB991F61F09F3F79F0879508952F
:100F9000121613061406551FF2CF4695F1DF08C04E
:100FA000161617061806991FF1CF8695710561056B
:100FB00008940895E894BB2766277727CB0197F913
:100FC00008950BD078C069D028F06ED018F0952322
:100FD00009F05AC05FC01124EECFCADFA0F3959F7D
:100FE000D1F3950F50E0551F629FF001729FBB2710
:100FF000F00DB11D639FAA27F00DB11DAA1F649FBC
:101000006627B00DA11D661F829F2227B00DA11D6E
:10101000621F739FB00DA11D621F839FA00D611DF4
:10102000221F749F3327A00D611D231F849F600D15
:10103000211D822F762F6A2F11249F5750408AF04E
:10104000E1F088234AF0EE0FFF1FBB1F661F771FDA
:10105000881F91505040A9F79E3F510570F014C071
:10106000AACF5F3FECF3983EDCF3869577956795C2
:10107000B795F795E7959F5FC1F7FE2B880F911DF8
:101080009695879597F9089597F99F6780E870E09E
:1010900060E008959FEF80EC089500240A941616EE
:1010A000170618060906089500240A941216130656
:1010B000140605060895092E0394000C11F48823E4
:1010C00052F0BB0F40F4BF2B11F460FF04C06F5F00
:1010D0007F4F8F4F9F4F0895AA1BBB1B51E107C045
:1010E000AA1FBB1FA617B70710F0A61BB70B881FB8
:1010F000991F5A95A9F780959095BC01CD01089547
:10110000CF93DF93AC018230910510F442E050E0C0
:10111000E0912901F0912A0120E030E0A0E0B0E068
:1011200024C08081918184179507D0F0841795079A
:1011300071F482819381109729F013969C938E937A
:1011400012972CC090932A018093290127C0211562
:10115000310519F08217930718F49C01BD01EF01C6
:1011600092818381DF01E92FF82F3097D1F6211585
:101170003105F9F0C901841B950B8430910580F489
:101180008A819B816115710521F0FB019383828324
:1011900004C090932A0180932901FE01329642C037
:1011A000FE01E80FF91F41935193029799838883B9
:1011B00039C08091270190912801009741F48091D6
:1011C00002019091030190932801809327012091BF
:1011D0000001309101012115310541F42DB73EB7D1
:1011E0008091040190910501281B390BE0912701A2
:1011F000F0912801E217F30798F42E1B3F0B2417F8
:10120000350770F0CA0102962817390748F08E0F8B
:101210009F1F90932801809327014193519302C00F
:10122000E0E0F0E0CF01DF91CF9108950F931F939D
:10123000CF93DF939C01009709F48CC0DC011297D7
:1012400013961C921E9212976091290170912A01A7
:101250006115710589F48D919C911197820F931FEF
:1012600020912701309128012817390769F5B0939B
:101270002801A09327016EC0FB0140E050E001C0AF
:10128000FC01EA17FB0730F482819381AF010097DC
:10129000B9F71FC0E9012297FB83EA83088119810E
:1012A000C901800F911F8E179F0759F4808191818A
:1012B000800F911F029699838883828193819B83FB
:1012C0008A834115510529F4B0932A01A09329017D
:1012D00041C0FA01B383A283C191D191EC0FFD1FEC
:1012E000AE17BF0781F4F901929182918C0F9D1F77
:1012F0000296DA0111969C938E93828193811396C4
:101300009C938E931297E0E0F0E002C0FB01BC01D9
:10131000DB0112968D919C9113970097B9F7CB0141
:1013200002962D913C911197820F931F20912701D6
:10133000309128012817390769F4309729F4109261
:101340002A011092290102C013821282709328018F
:1013500060932701DF91CF911F910F910895681736
:10136000790768F4FB01DC01E40FF51FA40FB51F3A
:1013700002C002900E9241505040D8F708950C944C
:10138000C809DC0101C06D9341505040E0F7089559
:10139000FB01DC0102C001900D9241505040D8F792
:0613A0000895F894FFCF50
:0613A60000002B012000F5
:00000001FF
